:020000040800F2
:100000000050002061310008813000088330000872
:1000100085300008873000088930000800000000A3
:100020000000000000000000000000008B3000080D
:100030008D300008000000008F300008913000086B
:10004000A9310008A9310008A9310008953000083D
:10005000A9310008A9310008A9310008A931000818
:10006000A9310008A9310008A9310008A931000808
:10007000A9310008A9310008A9310008A9310008F8
:10008000A9310008A9310008A9300008A9310008E9
:10009000A9310008A9310008A9310008C5300008BD
:1000A000A9310008A9310008A9310008A9310008C8
:1000B000A9310008DD300008A9310008A931000885
:1000C000A9310008A9310008A9310008A9310008A8
:1000D000A9310008A9310008A9310008A931000898
:1000E000A9310008A9310008A9310008000000006A
:1000F0000000000000000000000000000000000000
:0C01000000000000000000005FF808F1A3
:1001100010B5054C237833B9044B13B10448AFF341
:1001200000800123237010BD780000200000000033
:10013000783A000808B5034B1BB103490348AFF3F5
:10014000008008BD000000007C000020783A000814
:1001500081F0004102E000BF83F0004330B54FEA78
:1001600041044FEA430594EA050F08BF90EA020FE5
:100170001FBF54EA000C55EA020C7FEA645C7FEA78
:10018000655C00F0E2804FEA5454D4EB5555B8BF9B
:100190006D420CDD2C4480EA020281EA030382EA0C
:1001A000000083EA010180EA020281EA0303362D9E
:1001B00088BF30BD11F0004F4FEA01314FF4801C71
:1001C0004CEA113102D0404261EB410113F0004F83
:1001D0004FEA03334CEA133302D0524263EB43033A
:1001E00094EA050F00F0A780A4F10104D5F1200ED8
:1001F0000DDB02FA0EFC22FA05F2801841F1000133
:1002000003FA0EF2801843FA05F359410EE0A5F106
:1002100020050EF1200E012A03FA0EFC28BF4CF037
:10022000020C43FA05F3C01851EBE37101F00045ED
:1002300007D54FF0000EDCF1000C7EEB00006EEBFA
:100240000101B1F5801F1BD3B1F5001F0CD3490884
:100250005FEA30004FEA3C0C04F101044FEA4452DB
:1002600012F5800F80F09A80BCF1004F08BF5FEA62
:10027000500C50F1000041EB045141EA050130BD42
:100280005FEA4C0C404141EB010111F4801FA4F1E5
:100290000104E9D191F0000F04BF01460020B1FA3A
:1002A00081F308BF2033A3F10B03B3F120020CDA72
:1002B0000C3208DD02F1140CC2F10C0201FA0CF050
:1002C00021FA02F10CE002F11402D8BFC2F1200CB5
:1002D00001FA02F120FA0CFCDCBF41EA0C0190406B
:1002E000E41AA2BF01EB0451294330BD6FEA0404B4
:1002F0001F3C1CDA0C340EDC04F11404C4F120029F
:1003000020FA04F001FA02F340EA030021FA04F3B0
:1003100045EA030130BDC4F10C04C4F1200220FA07
:1003200002F001FA04F340EA0300294630BD21FA45
:1003300004F0294630BD94F0000F83F4801306BF0B
:1003400081F480110134013D4EE77FEA645C18BFFF
:100350007FEA655C29D094EA050F08BF90EA020F96
:1003600005D054EA000C04BF1946104630BD91EA8E
:10037000030F1EBF0021002030BD5FEA545C05D191
:100380004000494128BF41F0004130BD14F58004D0
:100390003CBF01F5801130BD01F0004545F0FE4144
:1003A00041F470014FF0000030BD7FEA645C1ABF79
:1003B000194610467FEA655C1CBF0B46024650EAB0
:1003C000013406BF52EA033591EA030F41F40021DC
:1003D00030BD00BF90F0000F04BF0021704730B562
:1003E0004FF4806404F132044FF000054FF0000137
:1003F00050E700BF90F0000F04BF0021704730B5F8
:100400004FF4806404F1320410F0004548BF4042CC
:100410004FF000013EE700BF42004FEAE2014FEA21
:1004200031014FEA02701FBF12F07F4393F07F4FFC
:1004300081F06051704792F0000F14BF93F07F4F2E
:10044000704730B54FF4607401F0004521F0004171
:1004500020E700BF50EA010208BF704730B54FF0F7
:1004600000050AE050EA010208BF704730B511F0FC
:10047000004502D5404261EB41014FF4806404F134
:1004800032045FEA915C3FF4DCAE4FF003025FEAB6
:10049000DC0C18BF03325FEADC0C18BF033202EB3E
:1004A000DC02C2F1200300FA03FC20FA02F001FA98
:1004B00003FE40EA0E0021FA02F11444C1E600BF37
:1004C00070B54FF0FF0C4CF4E06C1CEA11541DBFEA
:1004D0001CEA135594EA0C0F95EA0C0F00F0DEF8B5
:1004E0002C4481EA030621EA4C5123EA4C5350EA9A
:1004F000013518BF52EA033541F4801143F48013EB
:1005000038D0A0FB02CE4FF00005E1FB02E506F07B
:100510000042E0FB03E54FF00006E1FB03569CF0D0
:10052000000F18BF4EF0010EA4F1FF04B6F5007FD6
:1005300064F5407404D25FEA4E0E6D4146EB060648
:1005400042EAC62141EA55514FEAC52040EA5E50D1
:100550004FEACE2EB4F1FD0C88BFBCF5E06F1ED87B
:10056000BEF1004F08BF5FEA500E50F1000041EBB2
:10057000045170BD06F0004646EA010140EA02005F
:1005800081EA0301B4EB5C04C2BFD4EB0C0541EA81
:10059000045170BD41F480114FF0000E013C00F396
:1005A000AB8014F1360FDEBF002001F0004170BDBA
:1005B000C4F10004203C35DA0C341BDC04F11404D3
:1005C000C4F1200500FA05F320FA04F001FA05F25F
:1005D00040EA020001F0004221F0004110EBD3702C
:1005E00021FA04F642EB06015EEA430E08BF20EA58
:1005F000D37070BDC4F10C04C4F1200500FA04F3FB
:1006000020FA05F001FA04F240EA020001F000418C
:1006100010EBD37041F100015EEA430E08BF20EAFF
:10062000D37070BDC4F1200500FA05F24EEA020E47
:1006300020FA04F301FA05F243EA020321FA04F076
:1006400001F0004121FA04F220EA020000EBD3702D
:100650005EEA430E08BF20EAD37070BD94F0000F2D
:100660000FD101F00046400041EB010111F4801F61
:1006700008BF013CF7D041EA060195F0000F18BF12
:10068000704703F00046520043EB030313F4801F4E
:1006900008BF013DF7D043EA0603704794EA0C0F08
:1006A0000CEA135518BF95EA0C0F0CD050EA41061E
:1006B00018BF52EA4306D1D181EA030101F000419B
:1006C0004FF0000070BD50EA410606BF10461946C3
:1006D00052EA430619D094EA0C0F02D150EA0136CF
:1006E00013D195EA0C0F05D152EA03361CBF104610
:1006F00019460AD181EA030101F0004141F0FE41AF
:1007000041F470014FF0000070BD41F0FE4141F432
:10071000780170BD70B54FF0FF0C4CF4E06C1CEA32
:1007200011541DBF1CEA135594EA0C0F95EA0C0FE7
:1007300000F0A7F8A4EB050481EA030E52EA0335A2
:100740004FEA013100F088804FEA03334FF08055C3
:1007500045EA131343EA12634FEA022245EA1115F0
:1007600045EA10654FEA00260EF000419D4208BFA1
:10077000964244F1FD0404F5407402D25B084FEA4E
:100780003202B61A65EB03055B084FEA32024FF4FA
:1007900080104FF4002CB6EB020E75EB030E22BF57
:1007A000B61A754640EA0C005B084FEA3202B6EB17
:1007B000020E75EB030E22BFB61A754640EA5C00C6
:1007C0005B084FEA3202B6EB020E75EB030E22BF56
:1007D000B61A754640EA9C005B084FEA3202B6EB57
:1007E000020E75EB030E22BFB61A754640EADC0016
:1007F00055EA060E18D04FEA051545EA16754FEA78
:1008000006164FEAC30343EA52734FEAC2025FEA95
:100810001C1CC0D111F4801F0BD141EA00014FF024
:1008200000004FF0004CB6E711F4801F04BF0143F5
:100830000020B4F1FD0C88BFBCF5E06F3FF6AFAE11
:10084000B5EB030C04BFB6EB020C5FEA500C50F1A1
:10085000000041EB045170BD0EF0004E4EEA113124
:1008600014EB5C04C2BFD4EB0C0541EA045170BD2B
:1008700041F480114FF0000E013C90E645EA060E6F
:100880008DE60CEA135594EA0C0F08BF95EA0C0F9D
:100890003FF43BAF94EA0C0F0AD150EA01347FF4E5
:1008A00034AF95EA0C0F7FF425AF104619462CE7BC
:1008B00095EA0C0F06D152EA03353FF4FDAE10461F
:1008C000194622E750EA410618BF52EA43067FF470
:1008D000C5AE50EA41047FF40DAF52EA43057FF400
:1008E000EBAE12E74FF0FF3C06E000BF4FF0010C0B
:1008F00002E000BF4FF0010C4DF804CD4FEA410C6F
:100900007FEA6C5C4FEA430C18BF7FEA6C5C1BD03B
:1009100001B050EA410C0CBF52EA430C91EA030FBC
:1009200002BF90EA020F0020704710F1000F91EA19
:10093000030F58BF994208BF90422CBFD8176FEAE7
:10094000E37040F0010070474FEA410C7FEA6C5CB5
:1009500002D150EA013C07D14FEA430C7FEA6C5CBC
:10096000D6D152EA033CD3D05DF8040B704700BFE8
:100970008446104662468C461946634600E000BF36
:1009800001B5FFF7B7FF002848BF10F1000F01BD08
:100990004DF808EDFFF7F4FF0CBF012000205DF8D3
:1009A00008FB00BF4DF808EDFFF7EAFF34BF012058
:1009B00000205DF808FB00BF4DF808EDFFF7E0FFF1
:1009C00094BF012000205DF808FB00BF4DF808ED42
:1009D000FFF7CEFF94BF012000205DF808FB00BFA9
:1009E0004DF808EDFFF7C4FF34BF012000205DF88B
:1009F00008FB00BF4A0011D212F5001211D20DD52A
:100A00006FF47873B3EB62520ED44FEAC12343F014
:100A1000004343EA505323FA02F070474FF00000BE
:100A2000704750EA013002D14FF0FF3070474FF06D
:100A30000000704738B50E4B054618784FF47A73AE
:100A4000B3FBF0F30B4A1068B0FBF3F000F046FB89
:100A5000044658B90F2D09D8024629464FF0FF30F9
:100A600000F0FCFA044B20461D6038BD012038BD63
:100A7000000000200C00002004000020074A08B5F8
:100A80001368032043F01003136000F0D5FA002030
:100A9000FFF7D0FF02F0FCF9002008BD0020024063
:100AA000034A044B11681B780B441360704700BF66
:100AB000C400002000000020014B1868704700BFF0
:100AC000C400002038B50446FFF7F6FF0546631C56
:100AD0001EBF044B1B78E418FFF7EEFF401B844257
:100AE000FAD838BD000000200368D86C7047704702
:100AF000036810B55A680446900627D51A6891070E
:100B000024D5A26AD2065EBFA26A42F40072A26233
:100B10009A6802F46022B2F5602F10D1E26872B9CF
:100B20005A6822F020025A60A36A23F48073A362F9
:100B3000A36ADB045EBFA36A43F00103A3622046FD
:100B400001F038FE6FF0120223681A6023685A68B9
:100B5000100630D51A6851072DD5A26AD2065EBF9D
:100B6000A26A42F40052A2629A6802F4E042B2F52C
:100B7000E04F0AD05A68500516D49A6802F46022F1
:100B8000B2F5602F10D1E26872B95A6822F0800283
:100B90005A60A36A23F48053A362A36AD9055EBF97
:100BA000A36A43F00103A362204600F043FA6FF00A
:100BB0000C0223681A6023685A6852060DD51B6818
:100BC000DB070AD5A36A204643F48033A362FFF70C
:100BD0008EFF6FF0010223681A6010BD002373B509
:100BE000019390F82430012B74D001234D6880F8D4
:100BF0002430062D02684FEA85030C6825D82B4463
:100C00001F25566B053B9D4026EA050504FA03F3B4
:100C10002B435363092C4FEA44038D682FD90726D1
:100C20002344D1681E3B9E4021EA060105FA03F3E6
:100C30000B43D360A4F11003012B2BD90023002216
:100C400080F82420184602B070BD0C2D0BD82B4420
:100C50001F25166B233B9D4026EA050504FA03F386
:100C60002B431363D6E72B441F25D66A413B9D4097
:100C700026EA050504FA03F32B43D362CAE70726E5
:100C8000116923449E4021EA060105FA03F30B4350
:100C90001361CFE7104B9A4216D193681B02CDD453
:100CA0009368102C43F400039360C7D10B4B0C4A9C
:100CB0001B68B3FBF2F20A2353430193019B002B01
:100CC000BCD0019B013BF8E7836A43F020038362B9
:100CD0000123B4E70223B5E7002401400C00002003
:100CE00040420F00002373B50193036804469A68DD
:100CF000D20702D5002002B070BD9A6842F001020E
:100D00009A60124B124A1B68B3FBF2F30193019BEA
:100D1000C3B9FFF7D1FE064623689D6815F00105AB
:100D2000E8D1FFF7C9FE801B0228F5D9A36A84F831
:100D3000245043F01003A362E36A012043F001034F
:100D4000E362D8E7019B013BE0E700BF0C00002015
:100D500040420F0090F8243010B5012B044658D0C3
:100D6000012380F82430FFF7BDFF00284DD1A36A8E
:100D7000294A23F4706323F0010343F48073A362D0
:100D80002368934204D125494A6812F4702F32D166
:100D9000A26A22F48012A2625A68520541BFA26A76
:100DA00022F4405242F48052A262A26A12F48052AB
:100DB0001CBFE26A22F00602E262002284F82420CC
:100DC0006FF002021A605A6842F020025A609A6874
:100DD00002F46022B2F5602F13D10F4A934205D17D
:100DE000A2F58062526812F4702F0AD19A6842F418
:100DF000A0029A6010BDA26A42F48012A2624A6800
:100E0000CBE79A6842F48012F3E7002384F8243099
:100E100010BD022010BD00BF002801400024014089
:100E200038B5036804469A68D20701D4002038BD5B
:100E30009A6822F001029A60FFF73EFE0546236899
:100E40009B68DB07F2D5FFF737FE401B0228F6D977
:100E5000A36A012043F01003A362E36A43F0010395
:100E6000E36238BD70B50446002871D0836A23B9A7
:100E7000C36280F8243002F02DF82046FFF7D0FF3F
:100E8000A36A13F0100FA36A64D1002862D1E1694C
:100E900023F48853626823F0020343F002030A43F9
:100EA000A168A362E368B1F5807F42EA430238D0CB
:100EB000012914BF06464FF480766569012D07D1DC
:100EC000002B30D1A369013B46EA433545F4006667
:100ED0002368B1F5807F5D6825F4694545EA06051C
:100EE0005D609E681D4D05EA060545EA02059D60A8
:100EF00001D0012920D1216901390905DD6A25F4D4
:100F000070052943D9629968154B0B409A4215D157
:100F10000023E362A36A23F0030343F00103A36207
:100F200070BD0E46C9E7A36A43F02003A362E36ADB
:100F300043F00103E362CBE70021DFE7A36A23F07C
:100F4000120343F01003A362E36A43F00103E36278
:100F5000012070BD43F01003A362F9E7FDF7E1FF44
:100F6000FE0E1FFF002373B5019390F82430044652
:100F7000012B5AD0012380F82430FFF751FF05469A
:100F8000002832D1A36A022023F4885323F00203FD
:100F900043F00203A362264B1E6800F0B5FCB6FBCB
:100FA000F0F040000190019B1BBB2046FFF79AFE2A
:100FB0002268936843F008039360FFF77DFD0646BF
:100FC00023689A68120718D49A6842F004029A605B
:100FD000FFF772FD064623689B685B071FD4A36A70
:100FE00023F0030343F00103A362002384F82430B9
:100FF00012E0019B013B0193D5E7FFF75DFD801BEC
:101000000A28DDD9A36A012523F0120343F0100357
:10101000A362002384F82430284602B070BDFFF795
:101020004BFD801B0A28D6D9ECE70225F4E700BF68
:101030000C00002070470000074A0002D36800F44B
:10104000E06023F4E0631B041B0C43F0BF6343F434
:1010500000330343D360704700ED00E0174B30B519
:10106000DC68C4F30224C4F10703251D042B28BF48
:101070000423062D4FF0010598BF002405FA03F361
:1010800003F1FF3388BF033C1940A14005FA04F483
:10109000013C2240002842EA01024FEA0212AFBF9F
:1010A00000F16040064B00F00F00D2B2A5BFD2B2F3
:1010B00000F561401A5480F8002330BD00ED00E0D7
:1010C00014ED00E00123420900F01F0003FA00F0D4
:1010D000014B43F82200704700E100E00138B0F115
:1010E000807F0AD2F021064B064A586082F823100E
:1010F0000020072298601A6070470120704700BFE7
:1011000010E000E000ED00E02DE9F74F0022164668
:10111000654BDFF8A4E1DFF8A4C14FF001080C68CB
:1011200008FA06F808EA0404A0457FD14D68122D9C
:1011300000F0AF8000F28880022D00F0A7807CD8FC
:10114000002D00F08E80012D00F09E804FF00F09E1
:10115000FF2C93BF824606F18045083DD0F800B0D1
:1011600092BFB500D0F804B0AD0009FA05F82BEA3B
:10117000080802FA05F588BF00F1040A48EA0505E7
:10118000CAF80050D1F804A01AF0805F4ED0474D45
:10119000464FAD6926F0030845F00105BD61BD6904
:1011A00008F1804805F00105019508F5803806F042
:1011B000030B019D4FEA8B0BD8F8085009FA0BF985
:1011C00025EA09093A4DA84268D005F58065A8428C
:1011D00066D005F58065A84264D005F58065A84213
:1011E0000CBF0325042505FA0BF545EA0905C8F8E7
:1011F00008501D681AF4803F14BF2543A5431D60A5
:101200005D681AF4003F14BF2543A5435D609D68E7
:101210001AF4801F14BF2543A5439D60DD681AF4AE
:10122000001F14BF2C4325EA0404DC600136102E95
:101230007FF473AF03B0BDE8F08F032D22D0112DE2
:1012400084D1CA68043281E71A4FBD4209D012D84E
:10125000DFF86C904D4504D009F580394D457FF499
:1012600075AF8A68C2B1012A0CBFC0F81080C0F8FF
:10127000148008226AE77545F3D06545F1D0DFF8A0
:101280004490EBE7002261E7CA685FE7CA6808326A
:101290005CE7CA680C3259E7042257E70025A2E749
:1012A0000125A0E702259EE700040140001002404E
:1012B0000008014000002110000031100000321031
:1012C00000001110000022108368194214BF012091
:1012D000002070470AB1016170470904FBE7000074
:1012E00008B5044B5969014202D0586101F07EFAF9
:1012F00008BD00BF000401400122014B1A60704785
:1013000020000E4203682DE9F341DB07054610D4A7
:101310002B689F075ED42B68190700F195802B6816
:101320005A0700F1BF80EA69002A40F02D810020B1
:1013300014E0904C636803F00C03042B07D063683F
:1013400003F00C03082B0CD16368DE0309D5236876
:101350009C03DDD56B68002BDAD1012002B0BDE81B
:10136000F0816B68B3F5803F10D1236843F480337C
:101370002360FFF7A1FB064623689803C8D4FFF754
:101380009BFB801B6428F7D90320E7E79BB9236800
:1013900023F480332360236823F480232360FFF742
:1013A0008BFB064623689903B2D5FFF785FB801BAC
:1013B0006428F7D9E8E7B3F5A02F236803D143F4F5
:1013C00080232360D1E723F480332360236823F450
:1013D0008023CDE7674C636813F00C0F07D0636878
:1013E00003F00C03082B10D16368DA030DD42368D3
:1013F0009B0702D52B69012BAFD123686A6923F0C3
:10140000F80343EAC203236085E72A695A4B6AB1AD
:1014100001221A60FFF750FB064623689F07ECD4B1
:10142000FFF74AFB801B0228F7D9ADE71A60FFF7E8
:1014300043FB0646236898077FF56DAFFFF73CFB3B
:10144000801B0228F6D99FE7AA694A4C4B4BDAB1B8
:1014500001221A60FFF730FB0646636A9B070DD531
:101460004FF4FA52464B1B68B3FBF2F3019300BFF3
:10147000019B5A1E0192002BF9D150E7FFF71CFB8C
:10148000801B0228E9D97FE71A60FFF715FB0646A3
:10149000636A9F077FF543AFFFF70EFB801B0228AF
:1014A000F6D971E7334CE369D80024D40127E36906
:1014B00043F08053E361E36903F080530093009BA2
:1014C000304E3368D90518D5EB68012B26D1236A35
:1014D00043F001032362FFF7EFFA41F288368046BA
:1014E000236A9B073FD5002F3FF41DAFE36923F02C
:1014F0008053E36117E70027E2E7336843F4807322
:101500003360FFF7D9FA80463368DA05DCD4FFF799
:10151000D3FAA0EB08006428F6D935E7ABB9236A03
:1015200041F2883823F001032362236A23F0040385
:101530002362FFF7C1FA0646236A9807D3D5FFF75F
:10154000BBFA801B4045F7D91EE7052B236A03D160
:1015500043F004032362BAE723F001032362236A02
:1015600023F00403B6E7FFF7A7FAA0EB0800B042A8
:10157000B6D909E70010024000004242800442420E
:101580000C00002000700040224C636803F00C0344
:10159000082B3FF4E2AE00231F4E022A33602BD10A
:1015A000FFF78AFA0746236899011FD42B6AB3F51F
:1015B000803F05D16268A96822F400320A43626064
:1015C000696A62680B4322F4741213436360012357
:1015D0003360FFF771FA054623689A013FF5A7AE1D
:1015E000FFF76AFA401B0228F6D9CDE6FFF764FA46
:1015F000C01B0228D7D9C7E6FFF75EFA0546236865
:101600009B017FF594AEFFF757FA401B0228F6D9ED
:10161000BAE600BF001002406000424230B5194BEC
:1016200087B002AC03F110052246186859680833E8
:1016300003C2AB421446F7D101238DF804300223D4
:1016400011498DF805304B6803F00C02082A17D1B8
:10165000C3F3834206A80244DB0312F8102C0CD516
:101660004B680A48C3F34043504306AA134413F897
:10167000143CB0FBF3F007B030BD05485043FAE727
:101680000248F8E7903A00080010024000127A0081
:1016900000093D00544A2DE9F0411368054603F066
:1016A00007038B420E462AD329688C0734D4CA0715
:1016B00047D44D4A136803F007039E42C0F082806E
:1016C0002A684A4C12F0040F40F08780130706D5B1
:1016D00063682A6923F4605343EAC2036360FFF737
:1016E0009DFF6368424AC3F30313D35CD840414B68
:1016F00018600020FFF79EF90020BDE8F081136814
:1017000023F007030B431360136803F007039942A8
:10171000CAD00120BDE8F081344B11F0040F1EBF88
:101720005A6842F4E0625A60080742BF5A6842F4BD
:1017300060525A605A68A86822F0F00202435A6068
:10174000B5E76A68294C012A23681CD113F4003FCD
:10175000DFD0636841F2883823F0030313436360EA
:10176000FFF7AAF96B680746012B14D1636803F0F1
:101770000C03042B9DD0FFF79FF9C01B4045F5D902
:101780000320BDE8F081022A02D113F0007FDFE7D9
:1017900013F0020FDCE7022B0FD1636803F00C0398
:1017A000082B86D0FFF788F9C01B4045F5D9E7E73D
:1017B000FFF782F9C01B4045E2D8636813F00C0FB5
:1017C000F6D176E7136823F00703334313601368F9
:1017D00003F007039E429CD172E76368E96823F433
:1017E000E0630B43636071E7002002400010024099
:1017F000BF3A00080C000020044B054A5B68C3F3A5
:10180000C223D35C034A1068D840704700100240DE
:10181000CF3A00080C00002003682DE9F341D907F6
:10182000054620D5354CE369DA0032D40127E36957
:1018300043F08053E361E36903F080530193019B1C
:101840002F4E3368DB0526D5236A13F4407336D157
:10185000236A6A6823F44073134323621FB1E36968
:1018600023F08053E3612868830706D5234AA968DB
:10187000536823F440430B43536010F010001BD017
:101880001E4AE9685368002023F480030B43536029
:1018900012E00027D4E7336843F480733360FFF726
:1018A0000BF980463368D805CED4FFF705F9A0EBD5
:1018B00008006428F6D9032002B0BDE8F0816A6808
:1018C00002F440729342C3D001200E4A236A106092
:1018D000002023F4407110602162D907B8D5FFF7CA
:1018E000EBF841F288380646236A9A07B0D4FFF72E
:1018F000E3F8801B4045F7D9DDE700BF0010024048
:10190000007000404004424270B50446354B86B03A
:1019100002AD03F110062A4618685968083303C25D
:10192000B3421546F7D101238DF8043002239C42BF
:101930008DF8053047D0102C17D0012C4FD140F234
:101940000231294A136A1940B1F5817F44D003F46A
:101950004073B3F5007F2DD149F64040536A13F030
:10196000020F08BF002006B070BD1F4B59681868F1
:1019700010F08070F7D0C1F3834206A8024412F839
:10198000100CCA0341BF5A6806A9C2F3404252185C
:1019900044BF12F8141C154A5B684CBFB2FBF1F24D
:1019A000134A5B0202FB00F0DDD403234000B0FBCE
:1019B000F3F0D8E7B3F5407F11D113684FF224401C
:1019C00013F4003FCDE7FFF717FF074B5B68C3F346
:1019D000813301335B00EAE74FF40040C3E70020A6
:1019E000C1E700BFA03A00080010024000127A00D0
:1019F00000093D00036830B59A69D869996995B2C4
:101A00008CB2A5421DBFD86980B240EA014080B2C5
:101A100008BF40EA024030BD0368186A5B6A9BB2A7
:101A200043EA004070470023092803D840EA031026
:101A3000C0B270470A380133C0B2F5E70A22030981
:101A400000F00F0002FB0300C0B27047022970B51E
:101A50004FF0170300F5FA654FF009061AD84B430B
:101A600000F2CF74B3FBF6F04FF4C873B4FBF3F39A
:101A700004322A44104400EB940018446423B4FB5D
:101A8000F3F4001B0723B0FBF3F3C3EBC303C01A4B
:101A9000C0B270BD03FB01F0B0FBF6F002322A4485
:101AA0004FF4C87310446422B5FBF3F3B5FBF2F2B4
:101AB00000EB95001844801AE4E738B50446FEF7B9
:101AC000FBFF054623685A68920605D55A68002030
:101AD00042F010025A6038BDFEF7EEFF401BB0F531
:101AE0007A7FEFD9032038BD026838B553680446C1
:101AF00023F010035360FEF7DFFF054623685B68A1
:101B00009B0601D5002038BDFEF7D6FF401BB0F57F
:101B10007A7FF3D9032038BD38B505460C46FFF768
:101B2000CCFF58B92B68220CA4B29A612846DC611C
:101B3000FFF7DAFF003018BF012038BD012038BDA3
:101B400038B505460C46FFF7B8FF58B92B68220C8C
:101B5000A4B21A6228465C62FFF7C6FF003018BFC5
:101B6000012038BD012038BD70B50446E0B1D9B1BF
:101B7000037C0226012B46D00123467403740878A7
:101B80004E78897892B93C254FF46163754303FB25
:101B90000050451829462046FFF7BEFF0646B0B163
:101BA000042363740023237401262CE0FFF746FF0F
:101BB00005463046FFF742FF3C2358434FF461632C
:101BC00003FB05050846FFF739FF0544E2E72268F5
:101BD0002046536823F005035360FFF71DFF431CA5
:101BE0000DD085420BD900F5A83101F5C071204612
:101BF000FFF7A6FF18B1042326746374D4E701230A
:101C0000637400232374304670BD00002DE9F8434F
:101C10000D469046044610B90120BDE8F88300291E
:101C2000FAD003685B685E07F6D4FFF7E3FE4FF473
:101C30006162B0FBF2F3074602FB13023C20B2FBE9
:101C4000F0F100FB1122172B6970AA7040F2858019
:101C50001821B3FBF1F201FB123320462B70FFF782
:101C6000DBFE411C064604D087422CBF4FF0FF36F6
:101C7000C61B404B2046B7FBF3F903FB19794946D5
:101C8000FFF74AFF0028C7D1721C2FD009EB0601CD
:101C90002046FFF755FF0028BED1364B0026B7FB84
:101CA000F3F74FF0640E4FF4C87C40F2D529E07B87
:101CB000617BA27BB7421BD1C9B2D2B2E073617320
:101CC000A273FFF7C3FE2073B8F1000F0BD0287882
:101CD000FFF7A9FE28706878FFF7A5FE6870A8785E
:101CE000FFF7A1FEA8700020BDE8F8833146CFE7DA
:101CF0004B1E092B35D829FA03F3DB072FD421F02B
:101D00000203042B01D0092B04D11D2A06D901316D
:101D100001222DE002292BD11B2A01D8013227E014
:101D20001C2A13D182B2930712D1B2FBFEF30EFB31
:101D300013239BB27BB9B2FBFCF30CFB13239BB2C6
:101D4000002B16BF01221D22032111E01D2A0FD1F5
:101D5000012203210CE01D220AE02B70B4E71E2AA9
:101D6000D4E70C29CBD11E2AD8D901221146013043
:101D700001369FE78051010038B50446A8B10268DA
:101D8000536823F008035360FEF796FE0546236868
:101D90005B681B0701D5002038BDFEF78DFE401B98
:101DA000B0F57A7FF3D9032038BD012038BD00009B
:101DB00010B5044670B1437C03F0FF0213B90274FE
:101DC00001F0DAF8022320466374FFF7D5FF18B15B
:101DD00004236374012010BD2046FFF76EFE002827
:101DE000F6D12268A068536823F007035360174AAE
:101DF00018B1116B21F001011163D36A23F46073F0
:101E00000343D3626068431C05D10120FFF77CFDCA
:101E10000028DDD001382268936823F00F0343EADD
:101E200010439360D36880B21B0C1B041843D0602E
:101E30002046FFF759FE012310B104226274C9E75E
:101E4000E0736373A373637410BD00BF006C004044
:101E500080B1037C012B4FF0020309D00268437468
:101E6000136843F0010313600123437400230374D8
:101E7000184670470120704770477047036810B5D7
:101E80001A680446D10711D55A68D2070ED55B6887
:101E90005B070CD5FFF7F1FF6FF0040223685A606F
:101EA00004236FF00102637423685A6010BDFFF7CA
:101EB000E3FF0123F5E70000036A70B523F0010397
:101EC0000362036A446882690D6822F073022A4340
:101ED0008D6823F002032B430A4DA8420BD1CD6835
:101EE00023F008032B438E694D6924F44074354375
:101EF00023F004032C43446082614A684263036216
:101F000070BD00BF002C0140036A70B523F48073DC
:101F10000362036A4468C2690D6822F073022A43AF
:101F20008D6823F4007343EA05230B4DA8420DD1BD
:101F3000CD6823F4006343EA05238E694D6924F4D8
:101F40004054354323F4806344EA05144460C2617D
:101F50004A68C263036270BD002C0140036A30B559
:101F600023F480530362036A4468C2690D6822F453
:101F7000E64242EA05228D6823F4005343EA053322
:101F8000064DA84202BF4D6924F4804444EA8514FA
:101F90004460C2614A680264036230BD002C0140A3
:101FA00003680020DA6842F00102DA601A6842F041
:101FB00001021A607047704790F83C3070B5012BF1
:101FC0004FF002031CD0012280F83D30036880F8F6
:101FD0003C209A6822F47F4222F077029A600A68D5
:101FE000402A79D019D8102A00F093800AD8002A04
:101FF00000F08980012380F83D30002380F83C30D8
:10200000184670BD202A00F08A80302AF2D19A68E2
:1020100022F0700242F0370236E0702A36D01BD828
:10202000502A42D0602AE5D11C6A4D6824F0100481
:10203000CE681C6299691A6A21F4704122F0A002EC
:1020400042EA051241EA063199611A629A6822F061
:10205000700242F0670217E0B2F5805F11D0B2F56E
:10206000005FC7D18A684D689C68C9682A4324F418
:102070007F4442EA012222439A609A6842F48042F5
:1020800002E09A6822F007029A60B3E78A684D6816
:102090009C68C9682A4324F47F4442EA012222430F
:1020A0009A609A6842F07702EEE74C68CE68196A47
:1020B0001D6A21F00A0125F001051D629A6921437C
:1020C00022F0F00242EA06129A6119629A6822F03E
:1020D000700242F05702D7E74C68CE68196A1D6A51
:1020E00021F00A0125F001051D629A69214322F0C1
:1020F000F00242EA06129A6119629A6822F07002AE
:1021000042F04702C0E79A6822F0700242F00702EC
:10211000BAE79A6822F0700242F01702B4E79A68B0
:1021200022F0700242F02702AEE770477047704716
:1021300070477047036810B51A69044691070ED5B9
:10214000DA6892070BD56FF002021A6101229B69CF
:1021500002779B0777D0FFF7EAFF002323772368F6
:102160001A69500710D5DA6851070DD56FF00402CF
:102170001A6102229B69227713F4407F204668D0BF
:10218000FFF7D5FF0023237723681A6912070FD5BD
:10219000DA6810070CD56FF008021A610422DB69B7
:1021A0002277990720465AD0FFF7C1FF00232377F3
:1021B00023681A69D20610D5DA68D0060DD56FF0FB
:1021C00010021A610822DB69227713F4407F20464F
:1021D0004BD0FFF7ACFF0023237723681A69D107A0
:1021E00008D5DA68D20705D56FF0010220461A61DA
:1021F000FFF79BFF23681A69100608D5DA681106F5
:1022000005D56FF0800220461A6100F0A2F923681C
:102210001A69520608D5DA68500605D56FF04002F3
:1022200020461A61FFF785FF23681A69910622D5B7
:10223000DA6892061FD56FF020022046BDE81040F4
:102240001A6100F085B9FFF771FF2046FFF770FFB4
:1022500083E7FFF76BFF2046FFF76AFF92E7FFF780
:1022600065FF2046FFF764FFA0E7FFF75FFF20460A
:10227000FFF75EFFAFE710BD1A4A036890420AD02D
:10228000B0F1804F07D0A2F59432904203D002F50E
:102290008062904215D14A6823F070031343114ABB
:1022A00090420AD0B0F1804F07D0A2F5943290420C
:1022B00003D002F58062904203D1CA6823F44073D0
:1022C00013434A6923F08003134303608B68C3629E
:1022D0000B688362034B984204BF0B6903630123BD
:1022E00043617047002C014010B50446A0B190F83E
:1022F0003D3003F0FF021BB980F83C2000F060FE87
:102300000223206884F83D30211DFFF7B5FF01232B
:10231000002084F83D3010BD012010BD10B50446EA
:10232000A0B190F83D3003F0FF021BB980F83C20CB
:10233000FFF741FE0223206884F83D30211DFFF79E
:102340009BFF0123002084F83D3010BD012010BD0B
:10235000036A70B523F010030362036A446882695C
:102360000D6822F4E64242EA05228D6823F020033C
:1023700043EA05130B4DA8420DD1CD6823F080032D
:1023800043EA05138E694D6924F44064354323F014
:10239000400344EA8504446082614A6882630362C0
:1023A00070BD00BF002C014038B590F83C300446A9
:1023B000012B4FF0020025D0012384F83D0084F862
:1023C0003C300C2A18D8DFE802F0071717171E1741
:1023D00017172F17171740002068FFF76DFD2368A8
:1023E00009699A6942F008029A619A6922F0040226
:1023F0009A619A690A439A610123002084F83D306A
:1024000084F83C0038BD2068FFF7A2FF2368096903
:102410009A6942F400629A619A6922F480629A6130
:102420009A6942EA0122E6E72068FFF76DFD23681A
:102430000969DA6942F00802DA61DA6922F0040215
:10244000DA61DA690A43DA61D6E72068FFF786FDC8
:1024500023680969DA6942F40062DA61DA6922F410
:102460008062DA61DA6942EA0122ECE710B5012400
:10247000036A8C4023EA04030362036A8A401A4316
:10248000026210BD10B5044601220068FFF7EEFF9E
:102490002368064A0020934202BF5A6C42F400426D
:1024A0005A641A6842F001021A6010BD002C014003
:1024B00010B5044600220068FFF7D8FF2368124ACF
:1024C00093420DD141F21112196A114208D140F222
:1024D0004442196A114202BF5A6C22F400425A6403
:1024E00041F21112196A114208D140F24442196AAC
:1024F000114202BF1A6822F001021A600123002073
:1025000084F83D3010BD00BF002C014090F83C30F5
:1025100010B5012B4FF0020318D080F83D3003684E
:102520000C685A68496822F070025A605A6822435F
:102530005A609A6822F080029A609A680A439A6008
:10254000012380F83D30002380F83C30184610BD50
:102550007047704730B54FF47063002485B069460A
:102560001B488DE81800FEF7CFFD01224FF4005103
:102570001848FEF7AFFE22464FF480511448FEF78C
:10258000A9FE01224FF480411248FEF7A3FE0A245F
:102590000F4D4FF400612846FEF796FEB0B1013CA6
:1025A000F7D101244FF4706201238DE80C0003235E
:1025B000694607480393FEF7A7FD00224FF4005138
:1025C0000448FEF787FE204605B030BD0446E9E723
:1025D00000080140000C014010B50A4C01224FF4E4
:1025E00080412046FEF776FE0120FEF76BFA20467A
:1025F00000224FF48041FEF76DFEBDE8104001203F
:10260000FEF760BA000C014040FA01F313F0010F2D
:1026100014BF4FF400634FF0006310B44C1EE4B2DB
:1026200040FA04F4E407A1F10204E4B2A1F10301C9
:1026300040FA04F4C9B24CBF43F4806343F08063B2
:1026400040FA01F1E4074CBF43F4007343F0007318
:10265000C90708494CBF43F4807343F08073002AD4
:102660000B61054B08BF4FF04053044A10BC136187
:10267000FFF7B2BF0008014000100020000C01402D
:1026800010B50446FFF766FF01280AD00122072192
:102690002046FFF7B9FF204601220321FFF7B4FFD0
:1026A000002010BD10B5441E14F8010F18B1FFF73B
:1026B000E7FF0128F8D110BD07B50246044901A87B
:1026C00000F0A0FD01A8FFF7EDFF03B05DF804FBEB
:1026D000B03A000810B50446FFF73CFF01280AD0C5
:1026E000002207212046FFF78FFF2046002203210A
:1026F000FFF78AFF002010BD08B5FFF72BFF012868
:1027000013D00A4B0A4A1A614FF04052C3F8102402
:10271000FFF762FF2820FFF7DDFF0E20FFF7DAFF4B
:10272000BDE808400620FFF7D5BF08BD00080140FE
:102730000002000D282230B595B00DEB02000021FB
:1027400000F058FD142200210DEB020000F052FDB4
:102750001022002101A800F04DFD05230A934FF43B
:10276000803301240B93022512934FF480130AA89F
:1027700013930D940E941195FEF7C4FD0F2305934A
:10278000002307934FF4806308934FF4A06321461E
:1027900005A809930695FEF77DFF032301934FF4E7
:1027A000807302934FF4004301A80393FFF734F8BA
:1027B00015B030BD08B50848FEF796F9074B80B252
:1027C00018800748FEF790F90122064B80B2188066
:1027D000054B1A7008BD00BF380100209A00002088
:1027E000C8000020B4000020B2000020B0F5807FB7
:1027F00003D10022034B1A707047B0F5007FFBD164
:102800000122F7E70800002070B51C4C23789BB923
:102810001B4B1D8885B9022222704FF4C8721A80A2
:102820000122184B184E1A70184B197891421ED17C
:102830001D7000F09FFA35802378012B16D1104AC5
:1028400055889DB9022121704FF4C87151800D4AFD
:1028500013700E4B1D7000F081FA00F08BFA00200F
:102860000021094B1D800A4BC3E9000170BD4FF4E4
:102870007A711A70318000F08FFADDE708000020CD
:1028800094000020B30000209E000020A40000203F
:10289000A800002010B51F4A88B0138804460A2BF0
:1028A00033D1002101A811801C2200F0A3FCCCB977
:1028B0004FF4F072184B1A8000211848FFF7F8FD0A
:1028C000602300240193144B01A91B88224613485E
:1028D000029303940594FFF767FD21460F48FFF725
:1028E000D1FD14E00E4B1B889C4207D20A4A138884
:1028F000B3F5F07FE0D001331380DDE707D9064A56
:102900001388002BD8D0013BF6E70133138008B0C1
:1029100010BD00BF98000020B00000207C01002006
:10292000B60000200000000008B50D4B1888FDF728
:1029300061FD09A3D3E90023FEF73EF840B100236F
:10294000084A1370084A1380BDE8084000F012BA24
:1029500008BD00BFAFF30080000000000070A7407A
:102960009C000020A40000209E0000200000000029
:102970002DE9F84F424B434C1888434D80B240003C
:10298000FDF738FD0022414BFDF79AFD36A3D3E950
:102990000023FDF795FDFEF72DF83D4B1FFA80F85B
:1029A000A3F800803B4B188880B24000FDF722FD61
:1029B0000022364BFDF784FD2BA3D3E90023FDF75E
:1029C0007FFDFEF717F8344B1FFA80FBA3F800B029
:1029D000324B40465A6A236813442360FDF70AFDD0
:1029E00023A3D3E90023FDF795FE80465846894688
:1029F000FDF700FD02460B4640464946FDF760FDE7
:102A000080464BF68030D4F800A08946D5E90067AF
:102A10009AFBF0F0FDF7EEFC0022214BFDF77AFE69
:102A200002460B4640464946FDF74AFD12A3D3E94C
:102A30000023FDF76FFE3B463246FDF78FFB194B37
:102A4000C5E900011B78012B01D1FFF76DFF0023C1
:102A50002360154B1A880AB1013A1A805A880AB1C4
:102A6000013A5A80BDE8F88F0000000000C8A94074
:102A70000000000000E8AC40000000000020AC4076
:102A80009A000020A0000020A80000200000303F95
:102A90009C000020B4000020B6000020000400408C
:102AA00000408F40A40000209400002010262DE953
:102AB000804895B0FDF7E2FFFFF73CFE324600216B
:102AC0000DA800F097FB954B4FF4E0419A699448AC
:102AD00032439A619A69002432400392039A9A69B8
:102AE0004FF0010942F020029A619A694FF0020A00
:102AF00002F020020492049A9A694FF4407B42F05B
:102B000004029A619A694FF4F07802F00402059287
:102B1000059A9A694FF4805742F008029A619B69BE
:102B2000002203F008030693069BFEF7D3FB002266
:102B30004FF470617B48FEF7CDFB4FF4E0430DA9E5
:102B400077480D93CDF838900F94CDF840A0FEF75C
:102B5000DBFA4FF470630DA972480D93CDF83890ED
:102B60000F94CDF840A0FEF7CFFA6F4B0DA96C483B
:102B70000E930F94CDF834B0FEF7C6FA22462146E4
:102B80001720FEF76BFA1720FEF79CFA3246214613
:102B900009A800F02FFB1C2221460DA807940894D9
:102BA00000F028FB4FF08043604D284685E8580030
:102BB000C5F80C802C61AC61FFF796FB09A928468B
:102BC0000997FFF7F9F92846FFF7A8FB07A9284658
:102BD00007940894FFF79AFC602322460DA9284623
:102BE0000D93CDF838800F941194FFF7DDFB284644
:102BF00000F014FA324621460DA800F0FBFADFF887
:102C000054814B4B404688E858004BF67F3309947B
:102C1000C8F80C300A94C8F81040C8F81840FFF7FC
:102C200063FB0DA940460D97FFF7C6F909A9404679
:102C3000404F09940A94FFF769FC3F4B38463B60CC
:102C40004FF460233D4EFB6101930D940E940F945D
:102C5000BC60FC607C617C60C7F81090FEF702F9F4
:102C60000DA938460D94CDF838900F94FDF7B6FFB6
:102C7000334A019B30463260F361B460F4607461A2
:102C80007460C6F810900D940E940F94FEF7EAF855
:102C90000DA93046CDF83490CDF838900F94FDF75B
:102CA0009DFF4FF0FF33DFF8B090264A484689E891
:102CB0000C00C9F808B0FFF77BF84846FFF7C8F8E2
:102CC0004046FFF76DF93846FEF74CF93046FEF7FF
:102CD00049F921462846FFF7D5FBFFF70DFD504681
:102CE000FFF7F8FC4846FFF763F800F037F8164C9A
:102CF000164D174E2378012B03D10023237000F0CB
:102D00005DF82B78012B06D100232B70FFF730FEE6
:102D10003088FFF7BFFDFFF777FDEBE700100240BB
:102D2000000C014000080140000021107C0100203F
:102D3000000400403801002000240140C8000020A9
:102D40000028014000280040B3000020B20000200D
:102D50009E000020F80000206801002000220349A6
:102D600003480A704A708A70FEF7FEBEBC0100205C
:102D700068010020054B1A783AB901221A70044AFA
:102D8000044B1188927819809A70704709000020CE
:102D9000BC010020BF010020054B1A78012A05D193
:102DA0000022044904481A70FEF7DEBE704700BFD7
:102DB00009000020BF0100206801002038B5012073
:102DC000FFF788FC284B294C1888FFF775FC28482A
:102DD000FFF768FC274B1888FFF76EFC2648FFF7C3
:102DE00061FCC020FFF776FC244B1B78012B35D10A
:102DF000234B1A889B782280A3702578092D02D84E
:102E00003020FFF73DFC2846FFF756FC3A20FFF73D
:102E100037FC6578092D02D83020FFF731FC2846B1
:102E2000FFF74AFC3A20FFF72BFCA478092C02D8C4
:102E30003020FFF725FC2046FFF73EFC2020FFF75F
:102E40001FFC104BD3E90001FDF7D4FD80B2FFF762
:102E500033FCBDE838400C48FFF724BC0022214673
:102E60000A48FEF7D3FEC8E79C000020BC01002002
:102E7000B33A0008B6000020B83A00080900002064
:102E8000BF010020A8000020BB3A00086801002014
:102E90000E4B82B09A6942F001029A619A6902F07F
:102EA00001020092009ADA6942F08052DA61DB692D
:102EB000074A03F080530193019B536823F0E063BA
:102EC00043F08063536002B0704700BF00100240BF
:102ED00000000140102210B5044688B00DEB02003E
:102EE000002100F087F923681F4A934224D11F4B29
:102EF0009A6942F400729A619A6902F4007200922F
:102F0000009A9A6942F004029A619B6903F00403F3
:102F10000193019B01230493032304A914480593FF
:102F2000FEF7F2F8002212201146FEF797F8122061
:102F3000FEF7C8F808B010BD0E4A9342FAD10B4B09
:102F40009A6942F480629A619A6902F480620292FC
:102F5000029A9A6942F004029A619B6903F00403A1
:102F60000393039B0223D6E7002401400010024094
:102F7000000801400028014007B50E4B02689A4244
:102F800015D1FEF7B9F901210B4B0320DA6942F0A4
:102F90000062DA61DB69002203F000630193019BA8
:102FA000064B1960FEF75AF80320FEF78BF803B0C2
:102FB0005DF804FB00280040001002403C0442423F
:102FC000036807B5B3F1804F0DD103F50433DA6917
:102FD00042F00102DA61DB6903F001030093009B18
:102FE00003B05DF804FB0B4A9342F9D10A4B1D2054
:102FF000DA6942F00202DA610022DB69114603F06D
:1030000002030193019BFEF729F81D20FEF75AF8F1
:10301000E6E700BF000400400010024010B504467F
:1030200086B01022002102A800F0E4F82368B3F172
:10303000804F1ED103F504339A6902A942F00402BD
:103040009A619B690C4803F004030193019B4FF4C0
:10305000004302930223039303230593FEF754F8DE
:10306000064A536823F4407343F0E06343F48073EB
:10307000536006B010BD00BF0008014000000140D1
:103080007047FEE7FEE7FEE7FEE7704770477047D0
:10309000FDF706BD0122024B02481A70FEF7EEBE94
:1030A000B30000206801002008B50448FDF720FDAA
:1030B000BDE808400248FDF71BBD00BF38010020F5
:1030C000C800002008B54FF48070FEF709F9BDE88C
:1030D00008404FF40070FEF703B9000010B5094C2A
:1030E0000948FFF727F823682BB90848FDF732FE97
:1030F0000748FDF72FFE236803F53B438033236029
:1031000010BD00BFA0000020F80000203801002002
:10311000C80000200F4B1A6842F001021A6059687B
:103120000D4A0A405A601A6822F0847222F48032F2
:103130001A601A6822F480221A605A6822F4FE0289
:103140005A604FF41F029A604FF00062034B9A607E
:10315000704700BF001002400000FFF800ED00E0E3
:10316000002103E00B4B5B58435004310A480B4BE2
:1031700042189A42F6D30A4A02E0002342F8043B7E
:10318000084B9A42F9D3FFF7C5FF00F00FF8FFF79D
:103190008DFC7047143B00080000002074000020E4
:1031A00078000020C8010020FEE7000070B500256F
:1031B0000C4E0D4CA41BA410A54209D100F05CFCE0
:1031C00000250A4E0A4CA41BA410A54205D170BDCF
:1031D00056F8253098470135EEE756F825309847E0
:1031E0000135F2E70C3B00080C3B00080C3B0008E3
:1031F000103B000803460244934200D1704703F895
:10320000011BF9E70EB44FF4027100B59CB0ADF8A4
:1032100014106FF00041049107914FF6FF711DAB40
:1032200002900690084853F8042BADF81610006879
:1032300002A9019300F0EAF80022029B1A701CB068
:103240005DF804EB03B070471000002070B5CD1C92
:1032500025F0030508350C2D38BF0C25002D06463A
:1032600001DBA94203D90C233360002070BD00F0BC
:103270009CFB234A1468214691B9224C23681BB950
:10328000304600F04FFB20602946304600F04AFBF4
:10329000431C26D10C233046336000F087FBE4E763
:1032A0000B685B1B1AD40B2B0FD90B60CC18CD50BD
:1032B000304600F07BFB04F10B00231D20F00700DB
:1032C000C31A1BD05A42E25070BD8C420BBF6368D8
:1032D0004B681360636018BF0C46E9E70C46496809
:1032E000CAE7C41C24F00304A04205D0211A3046CA
:1032F00000F018FB0130CDD02560D9E770BD00BFCC
:10330000B8000020BC000020F8B5074614460E4661
:1033100021B91146BDE8F840FFF798BF22B900F087
:1033200047FB25462846F8BD00F08EFB84420FD9A6
:1033300021463846FFF78AFF05460028F2D031467D
:10334000224600F00DFB3146384600F031FBE9E73C
:103350003546E7E72DE9F0478E6882469E420C46E7
:103360009146984635D88A8912F4906F31D002235D
:10337000256809696F1A656905EB450595FBF3F545
:1033800008F101033B449D4238BF1D46530531D52A
:103390002946FFF75BFF064650B90C23CAF80030F8
:1033A000A3894FF0FF3043F04003A381BDE8F087CD
:1033B0003A46216900F0D4FAA38923F4906343F0DC
:1033C0008003A38126613E44266046466561ED1B6D
:1033D000A560464528BF464649463246206800F06B
:1033E000CAFAA36800209B1BA36023681E442660C2
:1033F000BDE8F0872A46FFF787FF06460028E1D19F
:103400002169504600F0D4FAC7E700002DE9F04FDB
:103410009DB003938B8980461C060D4616460FD53A
:103420000B696BB94021FFF711FF2860286128B9AB
:103430000C23C8F800304FF0FF30C4E040236B612C
:103440000023099320238DF8293030234FF0010BFE
:103450008DF82A3037463C4614F8013B002B3CD10E
:10346000B7EB060A0BD05346324629464046FFF7D3
:1034700071FF013000F0A280099B534409933B780F
:10348000002B00F09B8000234FF0FF320493079342
:10349000059206938DF853301A93052221785048EF
:1034A00000F050FA671C049BD8B9D90644BF20220B
:1034B0008DF853201A0744BF2B228DF85320227811
:1034C0002A2A16D000210A20079A27463B78013481
:1034D000303B092B50D9C9B111E0252BC0D027466C
:1034E000B9E73F4A3C46801A0BFA00F018430490B3
:1034F000D3E7039A111D12680391002A01DB07929A
:1035000004E0524243F00203079204933B782E2BCF
:103510000DD17B78791C2A2B32D1039B02371A1DDF
:103520001B680392002BB8BF4FF0FF3305932D4C5F
:1035300003223978204600F005FA38B14023001BF9
:1035400003FA00F0049B0137034304933978062201
:1035500025487E1C8DF8281000F0F4F9002835D09D
:10356000224BFBB9039B073323F007030833039374
:10357000099B4B4409936DE700FB02320121A4E74C
:1035800000230A24184605930F463A780131303A51
:10359000092A03D9002BCAD00590C8E704FB0020F4
:1035A0000123F1E703AB00932A46114B04A94046DF
:1035B000AFF30080B0F1FF3F8146D9D1AB895B0604
:1035C0003FF539AF09981DB0BDE8F08F03AB00930C
:1035D0002A46074B04A9404600F084F8EAE700BFFA
:1035E000D73A0008DD3A0008E13A00080000000080
:1035F000553300082DE9F04791461F468A680B694C
:1036000006469342B8BF1346C9F8003091F84320EC
:103610000C46DDF8208012B10133C9F80030236870
:10362000990642BFD9F800300233C9F80030256846
:1036300015F0060507D104F1190AE368D9F800204E
:103640009B1A9D422ADB94F843302268003318BF4E
:10365000012392062FD404F1430239463046C04775
:10366000013022D02368E56803F00603042B18BF5D
:103670000025D9F800204FF0000908BFAD1AA36853
:10368000226908BF25EAE5759342C4BF9B1AED186D
:103690001A344D451BD10020BDE8F0870123524666
:1036A00039463046C047013003D14FF0FF30BDE806
:1036B000F0870135C1E73020E11881F843005A1C3A
:1036C00094F845102244023382F84310C3E70123E3
:1036D000224639463046C0470130E6D009F101099B
:1036E000D7E700002DE9F04317460A7E85B06E2A21
:1036F000984606460C460C9B01F1430E00F0BC8038
:103700001AD8632A2ED00AD8002A00F0C880582A76
:1037100000F08A8004F1420584F842202AE0642AFD
:1037200001D0692AF6D121681A6811F0800F23D0E0
:10373000111D1960136827E0732A00F0B48008D8BF
:103740006F2A2AD0702AE5D10A6842F020020A6066
:1037500003E0752A21D0782ADCD178226F4984F8D9
:10376000452064E01A6801F14205111D19601368D3
:1037700084F842300123A3E011F0400F02F104016C
:103780001960D7D0B2F90030002B03DA2D225B424A
:1037900084F8432062490A2217E02068196810F073
:1037A000800F03D0081D18600B6806E010F0400F72
:1037B00001F104001860F7D00B886F2A14BF0A22A9
:1037C00008225749002084F843006568002DA56051
:1037D000C0F29C80206820F004002060002B3FD1C4
:1037E000002D40F095807546082A0BD12368DA0732
:1037F00008D5236962689A42DEBF302305F8013C90
:1038000005F1FF35AEEB05032361CDF800803B46A3
:1038100003AA21463046FFF7EDFE013055D14FF0A7
:10382000FF3005B0BDE8F08381F845203C492268AF
:10383000186812F0800F00F104051D6001D00368C4
:1038400002E05506FBD50388D00744BF42F02002B2
:1038500022601BB9226822F0200222601022B1E708
:103860007546B3FBF2F002FB1033CB5C05F8013D6B
:1038700003460028F5D1B7E708681A6810F0800FF2
:10388000496904D0101D18601368196007E010F032
:10389000400F02F1040018601368F6D0198000236D
:1038A00075462361B1E71A68111D1960156800217A
:1038B0006268284600F046F808B1401B6060636803
:1038C0002361002384F843309FE723692A46394661
:1038D0003046C0470130A2D023689B0707D500259A
:1038E00004F11909E368039A9B1A9D4205DBE0681D
:1038F000039B9842B8BF184693E701234A463946CE
:103900003046C04701308AD00135EBE7002BA7D104
:103910000B7804F1420584F8423065E7F93A000873
:10392000E83A000838B50023054C054608462360F0
:1039300000F094F8431C02D1236803B12B6038BD1A
:10394000C401002010B5C9B202449042034601D11F
:10395000002010BD1C7801308C42F6D1184610BDF5
:1039600010B5431E0A44914200D110BD11F8014B1D
:1039700003F8014FF7E7884210B501EB020303D8C3
:10398000421E99420CD110BD9842F9D28118D21A28
:10399000D34200D110BD13F8014D01F8014DF7E7F6
:1039A00011F8014B02F8014FEBE770477047000038
:1039B00038B50546002943D051F8043C0C1F002BB4
:1039C000B8BFE418FFF7F1FF1E4A1368104633B979
:1039D000636014602846BDE83840FFF7E7BFA342A4
:1039E0000BD921686218934201BF1A685B685218AC
:1039F000226063600460EDE713465A680AB1A24290
:103A0000FAD919685818A0420BD1206801445818F7
:103A100082421960DED110685268014419605A6010
:103A2000D8E702D90C232B60D4E7206821188A42FA
:103A300001BF116852680918216062605C60C9E7C3
:103A400038BD00BFB800002051F8040C0028A0F1D8
:103A50000400BCBF0B58C01870470000044B02465E
:103A6000196809B903491960186802441A60704757
:103A7000C0000020C8010020F8B500BFF8BC08BC99
:103A80009E467047F8B500BFF8BC08BC9E4670471C
:103A900002030405060708090A0B0C0D0E0F10108F
:103AA00002030405060708090A0B0C0D0E0F10107F
:103AB0002564006D562020006D41006D41680000B6
:103AC00000000000000000010203040607080900CE
:103AD00000000001020304232D302B2000686C4CF1
:103AE0000065666745464700303132333435363736
:103AF000383941424344454600303132333435365B
:0C3B0000373839616263646566000000BC
:043B0C003501000877
:043B10001101000897
:103B140001000000100000000201000000A24A049D
:103B2400140000200000000000000000000000005D
:103B34000000000000000000000000000000000081
:103B44000000000000000000000000000000000071
:103B54000000000000000000000000000000000061
:103B64000000000000000000000000000000000051
:103B74000000000000000000000000000000000041
:043B8400000000003D
:04000005080031615D
:00000001FF
